:10000300EF01FFFFFFFF013F065B4F666D7D077F3B
:070013006F777C395E797103
:10058B00014B11014E1001382C015000014A0001A2
:05059B003600014300E1
:1005210074FFFFFE12053A74FFFFFE12053A74FFD5
:09053100FFFE12053A74FFFFFE03
:0B053A00EF1FAC0670011E4C70F62293
:10056900E4F539E53990000393FF74262539F8A697
:10057900070539E539B407EBE4F538C200C201D201
:02058900AF229F
:1004060075080175903F1205211205211205A112EA
:1004160005691203868F08E50860051205CF80EC92
:10042600754A65300007C20012015A80F630011382
:10043600C201E543C39403500512001A80E5120574
:10044600B580E01205458F36E54AB46507E53660A6
:1004560003754A662000031201EC7FD07E07120561
:030466003A80C019
:03002300020026B2
:10002600C0E0C0D075D000C000C004C005C006C086
:100036000720980302014BC29885992174512538EF
:10004600F8A6210538E538B40109E52164EF600317
:10005600020148E538B40209E521640160030201A2
:1000660048E538B40308E521F46003020148E538A1
:10007600B40408E521F46003020148E538B4050834
:10008600E521F46003020148E538B40608E521F4E9
:100096006003020148E538B409137858E6FE08E61D
:1000A6007C002400F523EC3EF52202014BE52324D7
:1000B60009FFE43522FEEF65387001EE60030201A8
:1000C6004BAD2374582DF8E6FE74592DF8E67C00E6
:1000D6002400F525EC3EF524785AE6F53F754000F8
:1000E600E52324FDFFE52234FFFEC3E5409FE49EA1
:1000F6005012745B2540F8E6FF747D2540F8A6078C
:10010600054080DC754100754200754006E53824DF
:10011600FEFFE540C39F501374512540F8E6254283
:10012600F542E43541F541054080E2E542B5251248
:10013600E541B5240DD200E54A249CF550C201756F
:100146004300753800D007D006D005D004D000D0C3
:04015600D0D0E032F3
:020469008F09F9
:10046B00E5092402FFE509240BF54EE4F52D8F2E4B
:10047B00F539E539C39509501274442539F8E6FE70
:10048B00742F2539F8A606053980E77B007A0079A9
:10049B004485090E1204B9AD07AC06AF04742F25C1
:0D04AB0009F8A607AF0574302509F8A6076B
:0104B8002221
:1004B9008B0B8A0C890D754C008F4DE4F539E539A4
:1004C900C3950E501CAB0BAA0CA90D8539827583F7
:1004D90000120304254DF54DE4354CF54C053980E2
:0B04E900DDE54D2401FFE4354CFE2250
:10054500AFA0754C01754DF4E54D154DAC4C7002E1
:10055500154C4C600CEFC4540FF539B40FEA7F000D
:0305650022AF3989
:010568002270
:10015A00E55024FC601B24FB60282408600302018C
:10016A00EBE53F7004754A6822E53F6402707280CD
:10017A0066E53F7005754A6D80601205CF754A6560
:10018A008058E53F704B787DE6FF1205C7787EE61A
:10019A00FF1205C7787DE6754C00F54D754D00F5E3
:1001AA004C08E6254DF54DE4354CF54CFEAF4D7C3B
:1001BA00007D641203318E4C8F4D740B2FF58274BF
:1001CA00003EF583E493F590754A6574FFFFFE805F
:1001DA000D1205CF75903F754A657FB87E0B1205E3
:0201EA003A22B7
:1001EC00E4F550D201F538E54A2498601B24FB60F5
:1001FC002114604914604E146053146058240C7020
:10020C006A7544017F01801D7544027545017F02AA
:10021C008013754404754501E4F546F547754803AC
:10022C007549E77F061204697B007A007926AD4E8A
:10023C001204F412053674FFFFFE02053A75441FD2
:10024C00E4F545801675441F754501800E75441FF5
:10025C00754502800675441F7545037F02120469BB
:0C026C007B007A007926AD4E1204F422CB
:09001A0005437FF47E0102053A62
:0905B500E4F54312052102056979
:10038600754A6EE4F5371201EC300103120536307A
:10039600010312053630010312053630010312053A
:1003A600363001037F0122E53F7008E523642345CB
:1003B6002260037F0222754C00754D01747D254D28
:1003C600F8E6FF75F020E537A4254DF582E5F03512
:1003D6004CF583E58224FFF582E58334FFF583EF50
:1003E600F0054DE54D7002054C6421454C70CD0578
:1003F6004A0537E537C39404408C7590397F00224F
:0105CF002209
:1005A1007598504389205389EF758DFD758BFDD268
:0405B1008ED2AC2218
:0805C7008F993099FDC29922C1
:0804F4008B098A0A890B8D0CAB
:1004FC00E4F50DE50DC3950C501AAB09AA0AA90B2E
:10050C00850D82758300120304FF1205C71205BE08
:04051C00050D80DF6A
:0105200022B8
:0805BE007FFFAE071FEE70FA8B
:0105C6002212
:0300000002027881
:0C027800787FE4F6D8FD75819C0202BF7F
:10030400BB010CE58229F582E5833AF583E02250AE
:1003140006E92582F8E622BBFE06E92582F8E222F8
:0D032400E58229F582E5833AF583E4932212
:10033100BC000BBE0029EF8DF084FFADF022E4CCB0
:10034100F875F008EF2FFFEE33FEEC33FCEE9DEC79
:10035100984005FCEE9DFE0FD5F0E9E4CEFD22EDBF
:10036100F8F5F0EE8420D21CFEADF075F008EF2F09
:10037100FFED33FD4007985006D5F0F222C398FDFA
:050381000FD5F0EA2297
:10028400020406E493A3F8E493A34003F68001F286
:1002940008DFF48029E493A3F85407240CC8C3337B
:1002A400C4540F4420C8834004F456800146F6DF4A
:1002B400E4800B010204081020408090058BE47E4A
:1002C400019360BCA3FF543F30E509541FFEE4933F
:1002D400A360010ECF54C025E060A840B8E493A306
:1002E400FAE493A3F8E493A3C8C582C8CAC583CA31
:1002F400F0A3C8C582C8CAC583CADFE9DEE780BEE9
:0105A000005A
:00000001FF
