:10078300EF01FFFFFFFF013F065B4F666D7D077FB4
:070793006F777C395E79717C
:10000300014B1101511001382C015300014A000129
:080013003600014300014E001C
:10071A0074FFFFFE12073374FFFFFE12073374FFE4
:09072A00FFFE12073374FFFFFE0D
:0B073300EF1FAC0670011E4C70F62298
:10076100E4F539E53990078393FF74262539F8A616
:10077100070539E539B407EBE4F538C200C201D207
:02078100AF22A5
:1005BC0075080112071A12071A12079A120761120C
:1005CC0004CB8F08E508600512001C80EC754A65A9
:1005DC00300007C20012002680F6300113C201E57C
:1005EC0043C3940350051207BB80E51207AE80E0AD
:1005FC0012073E8F36E54AB46511E536600D1205DB
:10060C00478E4F8F50E4F54E754A66200003120258
:0A061C00C87FD07E0712073380B6B6
:0300230002019443
:10019400C0E0C0D075D000C000C004C005C006C017
:1001A400072098030202B9C298859921745425380E
:1001B400F8A6210538E538B40109E52164EF6003A8
:1001C4000202B6E538B40209E521640160030202C3
:1001D400B6E538B40308E521F460030202B6E53855
:1001E400B40408E521F460030202B6E538B4050856
:1001F400E521F460030202B6E538B40608E521F40B
:1002040060030202B6E538B40913785BE6FE08E63B
:100214007C002400F523EC3EF5220202B9E52324F8
:1002240009FFE43522FEEF65387001EE6003020237
:10023400B9AD23745B2DF8E6FE745C2DF8E67C0002
:100244002400F525EC3EF524785DE6F53F75400085
:10025400E52324FDFFE52234FFFEC3E5409FE49E31
:100264005012745E2540F8E6FF74802540F8A60716
:10027400054080DC754100754200754006E5382470
:10028400FEFFE540C39F501374542540F8E6254211
:10029400F542E43541F541054080E2E542B52512D9
:1002A400E541B5240DD200E54A249CF553C20175FD
:1002B4004300753800D007D006D005D004D000D054
:0402C400D0D0E03284
:020626008F093A
:10062800E5092402FFE509240BF551E4F52D8F2E89
:10063800F539E539C39509501274442539F8E6FEB1
:10064800742F2539F8A606053980E77B007A0079EA
:100658004485090E1206B2AD07AC06AF04742F2507
:0D06680009F8A607AF0574302509F8A607AC
:010675002262
:1006B2008B0B8A0C890D754C008F4DE4F539E539A9
:1006C200C3950E501CAB0BAA0CA90D8539827583FC
:1006D200001203AB254DF54DE4354CF54C05398040
:0B06E200DDE54D2401FFE4354CFE2255
:10073E00AF80754C01754DF4E54D154DAC4C700206
:10074E00154C4C600BEF25E0F53930E7EB7F0022BE
:02075E007F0515
:010760002276
:10002600E55314B40900400302019390003F75F0B4
:1000360003A4C58325F0C5837302005A0200E002BB
:10004600012002006D02010B02014702015C020160
:1000560071020080E53F7004754A6822E53F64023C
:1000660060030201938069E53F7006754A6D0201DF
:100076000412001C754A65020104E53F704C788045
:10008600E6FF1207CD7881E6FF1207CD7880E67588
:100096004C00F54D754D00F54C08E6254DF54DE443
:1000A600354CF54CFEAF4D7C007D641203EA8E4C58
:1000B6008F4D748B2FF58274073EF583E493F5908C
:1000C600754A6574FFFFFE02019012001C75903F91
:1000D600754A657FB87E0B020190E53F7006754A4A
:1000E60069F54E22E53F64026003020193054EE581
:1000F6004ED3941E4005754A658003754A667FB8DF
:100106007E0B020190E53F7005754A678006120076
:100116001C754A667FB87E0B8070E53F7006754A8F
:100126006AF54E22E53F64027063054EE54ED394B0
:100136001E4005754A658003754A677FB87E0B8049
:1001460049E53F7005754A6B800612001C754A67C3
:100156007FB87E0B8034E53F7005754A6C800612C9
:10016600001C754A657FB87E0B801FE53F701175D0
:100176004A657FB87E0B120733AF50AE4F02067644
:0E01860012001C754A657FB87E0B12073322EB
:1002C800E4F553D201F538E54A249BB40D00400308
:1002D8000203AA9002E975F003A4C58325F0C5833B
:1002E8007302031002035A0203680203150203157E
:1002F80002037902038302038A02031702032C0212
:10030800033402033C0203449007948048805875E4
:100318004404754501E4F546F5477548037549E712
:100328007F06806D75441FE4F545801675441F757A
:100338004501800E75441F754502800675441F757A
:1003480045037F021206267B007A007926AD51020A
:1003580006ED900795E493F5907544017F0180318F
:100368007544017F01802A7544027545017F02802A
:10037800207544027545027F0280167544057F0189
:10038800800F754406754501E54FF5468550477F52
:10039800041206267B007A007926AD511206ED126A
:0303A800072F22FA
:0907BB0005437FF47E01020733BF
:0D07AE00E4F54312071A120761754A65222F
:1004CB00754A6EE4F5371202C830010312072F305C
:1004DB00010312072F30010312072F3001031207FC
:1004EB002F3001037F0122E53F7008E5236423458C
:1004FB002260037F0222E4F54CF54D7480254DF804
:10050B00E6FF75F020E537A4254DF582E5F0354C77
:10051B00F583E5822400F582E5833400F583EFF063
:10052B00054DE54D7002054C6421454C70CD054AD7
:0C053B000537E537C39404408D7F002293
:10054700EF24FFFFE434FFFE7C007D641203D88EA6
:100557004C8F4DE54D7803CEC313CE13D8F9240045
:10056700F58274003EF583E0FFE54D5407FEEFA8E2
:1005770006088002C333D8FCF539E53930E7310581
:100587004DE54D7002054CAE4C7803CEC313CE1328
:10059700D8F92400F58274003EF583E0FFE54D5459
:1005A70007FEEFA806088002C333D8FCF53980CAD6
:0505B700AE4CAF4D2227
:10067600AD07AC06ED7803CEC313CE13D8F9FF242D
:1006860000F58274003EF583E0F539ED5407FB74FE
:1006960080A803088002C313D8FCF53742397400DA
:0C06A6002FF58274003EF583E539F02248
:01001C0022C1
:10079A007598504389205389EF758DFD758BFDD26D
:0407AA008ED2AC221D
:0807CD008F993099FDC29922B9
:0806ED008B098A0A890B8D0CB0
:1006F500E4F50DE50DC3950C501AAB09AA0AA90B33
:10070500850D827583001203ABFF1207CD1207C456
:04071500050D80DF6F
:0107190022BD
:0807C4007FFFAE071FEE70FA83
:0107CC00220A
:0300000002043FB8
:0C043F00787FE4F6D8FD75819F020486EA
:1003AB00BB010CE58229F582E5833AF583E0225007
:1003BB0006E92582F8E622BBFE06E92582F8E22251
:0D03CB00E58229F582E5833AF583E493226B
:1003D800EF8DF0A4A8F0CF8CF0A428CE8DF0A42E39
:0203E800FE22F3
:1003EA00BC000BBE0029EF8DF084FFADF022E4CCF7
:1003FA00F875F008EF2FFFEE33FEEC33FCEE9DECC0
:10040A00984005FCEE9DFE0FD5F0E9E4CEFD22ED05
:10041A00F8F5F0EE8420D21CFEADF075F008EF2F4F
:10042A00FFED33FD4007985006D5F0F222C398FD40
:05043A000FD5F0EA22DD
:10044B000205BCE493A3F8E493A34003F68001F206
:10045B0008DFF48029E493A3F85407240CC8C333B2
:10046B00C4540F4420C8834004F456800146F6DF81
:10047B00E4800B0102040810204080900003E47E0E
:10048B00019360BCA3FF543F30E509541FFEE49376
:10049B00A360010ECF54C025E060A840B8E493A33D
:1004AB00FAE493A3F8E493A3C8C582C8CAC583CA68
:1004BB00F0A3C8C582C8CAC583CADFE9DEE780BE20
:01001B0000E4
:00000001FF
