:10000300EF01FFFFFFFF013F065B4F666D7D077F3B
:070013006F777C395E797103
:1005A000014811014B1001382C014D000147000199
:0505B0003600014000CF
:1005360074FFFFFE12054F74FFFFFE12054F74FF96
:09054600FFFE12054F74FFFFFED9
:0B054F00EF1FAC0670011E4C70F6227E
:10057E00E4F539E53990000393FF74262539F8A682
:10058E00070539E539B407EBE4F538C200C201D2EC
:02059E00AF228A
:1004140075080175903F1205361205361205B6129D
:10042400057E1203978F08E50860051205E480EC49
:10043400759040754765300007C20012016580F66B
:10044400300113C201E540C39403500512001A8021
:10045400E51205CA80E012055A8F36E547B46507F0
:10046400E53660037547662000031201F77FD07EEE
:060474000712054F80C0D5
:03002300020026B2
:10002600C0E0C083C082C0D075D000C000C004C08C
:0500360005C006C00733
:10003B00209803020152C298859921744E2538F8F5
:10004B00A6210538E538C4540F7E00540F240AF559
:10005B0082EE3400F583E493F590E538B40109E5BD
:10006B002164EF6003753800E538B40209E52164BB
:10007B00016003753800E538B40308E521F460032B
:10008B00753800E538B40408E521F46003753800D1
:10009B00E538B40508E521F46003753800E538B49C
:1000AB000608E521F46003753800E538B4091378C8
:1000BB0055E6FE08E67C002400F523EC3EF5220213
:1000CB000152E5232409FFE43522FEEF6538700168
:1000DB00EE7074AD2374552DF8E6FE74562DF8E6CC
:1000EB007C002400F525EC3EF5247857E6F53FE43B
:1000FB00FFE52324FDFDE52234FFFCEFC39DE49CCB
:10010B00500F74582FF8E6FE747A2FF8A6060F805E
:10011B00E0E4FDFC7F06E53824FEFEEFC39E500DA8
:10012B00744E2FF8E62DFDE43CFC0F80E9EDB52570
:10013B0013ECB5240FD200E547249CF54DC2017595
:07014B004000C29C75380062
:10015200D007D006D005D004D000D0D0D082D08332
:03016200D0E032B8
:02047A008F09E8
:10047C00E5092402FFE509240BF54BE4F52D8F2E3D
:10048C00F539E539C39509501274412539F8E6FE62
:10049C00742F2539F8A606053980E77B007A007998
:1004AC004185090E1204CAAD07AC06AF04742F25A2
:0D04BC0009F8A607AF0574302509F8A6075A
:0104C9002210
:1004CA008B0B8A0C890D7549008F4AE4F539E53999
:1004DA00C3950E501CAB0BAA0CA90D8539827583E6
:1004EA0000120315254AF54AE43549F549053980CC
:0B04FA00DDE54A2401FFE43549FE2245
:10055A00AFA0754901754AF4E54A154AAC497002DB
:10056A0015494C600CEFC4540FF539B40FEA7F00FB
:03057A0022AF3974
:01057D00225B
:10016500E54D24FC601B24FB602824086003020184
:10017500F6E53F700475476822E53F6402707280BA
:1001850066E53F700575476D80601205E475476546
:100195008058E53F704B787AE6FF1205DC787BE600
:1001A500FF1205DC787AE6754900F54A754A00F5CF
:1001B5004908E6254AF54AE43549F549FEAF4A7C42
:1001C500007D641203428E498F4A740B2FF58274A9
:1001D500003EF583E493F59075476574FFFFFE8057
:1001E5000D1205E475903F7547657FB87E0B1205C6
:0201F5004F2297
:1001F700C29CE4F54DD201F538E5472498601B24ED
:10020700FB602114604B14605014605514605A242D
:100217000C706E7541017F01801D754102754201A9
:100227007F028013754104754201E4F543F5447577
:1002370045037546E77F0612047A7B007A00792624
:10024700AD4B120505D29C12054B74FFFFFE02054C
:100257004F75411FE4F542801675411F75420180B5
:100267000E75411F754202800675411F7542037F57
:100277000212047A7B007A007926AD4B120505D26B
:020287009C22B7
:09001A0005407FF47E0102054F50
:0905CA00E4F54012053602057E3D
:1003970075476EE4F5371201F730010312054B304C
:1003A700010312054B30010312054B3001031205FF
:1003B7004B3001037F0122E53F7008E523642345A5
:1003C7002260037F0222754900754A01747A254A23
:1003D700F8E6FF75F020E537A4254AF582E5F03504
:1003E70049F583E58224FFF582E58334FFF583EF42
:1003F700F0054AE54A700205496421454970CD0573
:0D040700470537E537C39404408C7F002281
:0105E40022F4
:1005B6007598504389205389EF758DFD758BFDD253
:0405C6008ED2AC2203
:0805DC008F993099FDC29922AC
:080505008B098A0A890B8D0C99
:10050D00C29CE4F50DE50DC3950C501AAB09AA0A72
:10051D00A90B850D82758300120315FF1205DC12E0
:08052D0005D3050D80DFD29C0F
:0105350022A3
:0805D3007FFFAE071FEE70FA76
:0105DB0022FD
:0300000002028970
:0C028900787FE4F6D8FD7581990202D060
:10031500BB010CE58229F582E5833AF583E022509D
:1003250006E92582F8E622BBFE06E92582F8E222E7
:0D033500E58229F582E5833AF583E4932201
:10034200BC000BBE0029EF8DF084FFADF022E4CC9F
:10035200F875F008EF2FFFEE33FEEC33FCEE9DEC68
:10036200984005FCEE9DFE0FD5F0E9E4CEFD22EDAE
:10037200F8F5F0EE8420D21CFEADF075F008EF2FF8
:10038200FFED33FD4007985006D5F0F222C398FDE9
:050392000FD5F0EA2286
:10029500020414E493A3F8E493A34003F68001F267
:1002A50008DFF48029E493A3F85407240CC8C3336A
:1002B500C4540F4420C8834004F456800146F6DF39
:1002C500E4800B01020408102040809005A0E47E24
:1002D500019360BCA3FF543F30E509541FFEE4932E
:1002E500A360010ECF54C025E060A840B8E493A3F5
:1002F500FAE493A3F8E493A3C8C582C8CAC583CA20
:10030500F0A3C8C582C8CAC583CADFE9DEE780BED7
:0105B5000045
:00000001FF
