:0804BE00EF01FFFFFFFF010148
:10046D0001421101451001372C01460001410001E7
:05047D003600013F0004
:0B049700EF1FAC0670011E4C70F62237
:10042400E4FFFE74BE2FF58274043EF583E493FD6D
:1004340074262FF8A6050FBF00010EEF64074E7057
:06044400E2E4F537D2AF3F
:01044A00228F
:1003380012048312042475410B30000CC200120011
:1003480003209CF5D29C80F1300111E53FC3940352
:1003580050051204AC80E21204A280DD12044B8F17
:1003680036E541B40B07E536600375410C1203BC52
:0903780074FFFFFE12049780C01F
:0300230002016275
:10016200C0E0C0D075D000C000C004C005C006C049
:1001720007209803020239C29885992174472537CE
:10018200F8A6210537E537B40913784EE6FE08E6EE
:100192007C002400F523EC3EF522020239E52324FB
:1001A20009FFE43522FEEF65377001EE60030202BB
:1001B20039AD23744E2DF8E6FE744F2DF8E67C001F
:1001C2002400F525EC3EF5247850E6F53E7538001E
:1001D200E52324FDFFE52234FFFEC3E5389FE49EBC
:1001E200501274512538F8E6FF74732538F8A607C3
:1001F200053880DC754300754400753806E5372400
:10020200FEFFE538C39F501374472538F8E62544AE
:10021200F544E43543F543053880E2E544B5251459
:10022200E543B5240FD200E54124F6F546C2017537
:100232003F00C29C753700D007D006D005D004D04D
:0602420000D0D0D0E03234
:0802D4008D0C8B098A0A890BCD
:1002DC00E50C2402FFE50C240BF54512011CF5403E
:1002EC00E4F52D8F2EF538E538C3950C501BAB0972
:1002FC00AA0AA90B853882758300120135FE742F6A
:10030C002538F8A606053880DEAB09AA0AA90B85A4
:10031C000C11120381AD07AC06AF04742F250CF839
:0B032C00A607AF057430250CF8A607EB
:0103370022A3
:100381008B0E8A0F89107543008F44E4F538E538E8
:10039100C39511501CAB0EAA0FA910853882758325
:1003A100001201352544F544E43543F54305388011
:0B03B100DDE5442401FFE43543FE229B
:10044B00AFA07543017544F4E5441544AC43700209
:10045B0015434C600AEFC4540FF53870EBFF22AF15
:01046B003858
:01046C00226D
:10000300E546147017E53E700475410E22E53EB4D3
:0D001300020A75410B7FB87E0B1204972284
:1003BC0078087C007D007BFF7A0479C57E007F0184
:1003CC001200F6E54124F570167B007A0079087D61
:1003DC00011202D47B007A007926AD451203F3E4B6
:0603EC00F546D201D29C8F
:0103F20022E8
:0904AC00053F7FF47E0102049774
:0A04A200E4F53F74FFFFFE0204972B
:100483007598504389205389EF758DFD758BFDD287
:040493008ED2AC2237
:0804C6008F993099FDC29922C3
:0803F3008B098A0A890B8D0CAD
:1003FB00C29CE4F50DE50DC3950C501AAB09AA0A86
:10040B00A90B850D82758300120135FF1204C612EC
:08041B0004B5050D80DFD29C41
:0104230022B6
:0804B5007FFFAE071FEE70FA95
:0104BD00221C
:03000000020248B1
:0C024800787FE4F6D8FD75819202028FE9
:10002600E709F608DFFA8046E709F208DFFA803EBC
:1000360088828C83E709F0A3DFFA8032E309F608A9
:10004600DFFA8078E309F208DFFA807088828C8311
:10005600E309F0A3DFFA806489828A83E0A3F608C5
:10006600DFFA805889828A83E0A3F208DFFA804C9F
:1000760080D280FA80C680D4806980F28033801076
:1000860080A680EA809A80A880DA80E280CA8033DF
:1000960089828A83ECFAE493A3C8C582C8CCC58357
:1000A600CCF0A3C8C582C8CCC583CCDFE9DEE78027
:1000B6000D89828A83E493A3F608DFF9ECFAA9F0A6
:1000C600EDFB2289828A83ECFAE0A3C8C582C8CCFC
:1000D600C583CCF0A3C8C582C8CCC583CCDFEADE15
:1000E600E880DB89828A83E493A3F208DFF980CC77
:1000F60088F0EF60010E4E60C388F0ED2402B40470
:100106000050B9F582EB2402B4040050AF23234516
:06011600822390007673C5
:10011C00BB010689828A83E0225002E722BBFE02E1
:09012C00E32289828A83E4932214
:10013500BB010CE58229F582E5833AF583E022507F
:1001450006E92582F8E622BBFE06E92582F8E222C9
:0D015500E58229F582E5833AF583E49322E3
:10025400020338E493A3F8E493A34003F68001F285
:1002640008DFF48029E493A3F85407240CC8C333AB
:10027400C4540F4420C8834004F456800146F6DF7A
:10028400E4800B010204081020408090046DE47E99
:10029400019360BCA3FF543F30E509541FFEE4936F
:1002A400A360010ECF54C025E060A840B8E493A336
:1002B400FAE493A3F8E493A3C8C582C8CAC583CA61
:1002C400F0A3C8C582C8CAC583CADFE9DEE780BE19
:010482000079
:00000001FF
